:100000000C9434000C943E000C943E000C943E0082
:100010000C943E000C943E000C943E000C943E0068
:100020000C943E000C943E000C943E000C943E0058
:100030000C943E000C943E000C943E000C943E0048
:100040000C943E000C943E000C943E000C943E0038
:100050000C943E000C943E000C943E000C943E0028
:100060000C943E000C943E0011241FBECFEFD8E04C
:10007000DEBFCDBF0E9440000C9470000C940000C5
:1000800082E084B91AB88CE08BB982E04A9913C037
:1000900085B92FEF31EE94E0215030409040E1F7E8
:1000A00000C0000015B82FEF31EE94E02150304031
:1000B0009040E1F712C085B92FEF39E698E1215061
:1000C00030409040E1F700C0000015B82FEF39E64E
:1000D00098E1215030409040E1F700C00000D6CFB9
:0400E000F894FFCFC2
:00000001FF
